{
  "address": "0xe7f1725E7734CE288F8367e1Bb143E90bb3F0512",
  "abi": [
    {
      "inputs": [
        {
          "internalType": "uint256",
          "name": "_proposedAmount",
          "type": "uint256"
        }
      ],
      "stateMutability": "nonpayable",
      "type": "constructor"
    },
    {
      "inputs": [],
      "name": "fund",
      "outputs": [],
      "stateMutability": "payable",
      "type": "function"
    },
    {
      "inputs": [],
      "name": "retrive",
      "outputs": [],
      "stateMutability": "payable",
      "type": "function"
    }
  ],
  "transactionHash": "0x073a7660f15554be0d2372128c9fad39523958bacc34aa0df99d3701bcfd6046",
  "args": [
    "20000000000000000"
  ],
  "numDeployments": 1,
  "solcInputHash": "1fecdf571af78546b920beedf543ef74",
  "bytecode": "0x6080604052600060035534801561001557600080fd5b506040516104a13803806104a1833981810160405281019061003791906100ae565b8060048190555073d4a33860578de61dbabdc8bfdb98fd742fa7028e600560006101000a81548173ffffffffffffffffffffffffffffffffffffffff021916908373ffffffffffffffffffffffffffffffffffffffff160217905550506100f8565b6000815190506100a8816100e1565b92915050565b6000602082840312156100c057600080fd5b60006100ce84828501610099565b91505092915050565b6000819050919050565b6100ea816100d7565b81146100f557600080fd5b50565b61039a806101076000396000f3fe6080604052600436106100295760003560e01c8063a6b7fc5b1461002e578063b60d428814610038575b600080fd5b610036610042565b005b6100406101be565b005b6000600260003373ffffffffffffffffffffffffffffffffffffffff1673ffffffffffffffffffffffffffffffffffffffff16815260200190815260200160002054146101bc576000803373ffffffffffffffffffffffffffffffffffffffff16600260003373ffffffffffffffffffffffffffffffffffffffff1673ffffffffffffffffffffffffffffffffffffffff168152602001908152602001600020546040516100ef90610284565b60006040518083038185875af1925050503d806000811461012c576040519150601f19603f3d011682016040523d82523d6000602084013e610131565b606091505b509150915081610176576040517f08c379a000000000000000000000000000000000000000000000000000000000815260040161016d90610299565b60405180910390fd5b600260003373ffffffffffffffffffffffffffffffffffffffff1673ffffffffffffffffffffffffffffffffffffffff1681526020019081526020016000206000905550505b565b34600260003373ffffffffffffffffffffffffffffffffffffffff1673ffffffffffffffffffffffffffffffffffffffff168152602001908152602001600020600082825461020d91906102d5565b925050819055503460035461022291906102d5565b600381905550565b60006102376014836102c4565b91507f4661696c656420746f2073656e642045746865720000000000000000000000006000830152602082019050919050565b60006102776000836102b9565b9150600082019050919050565b600061028f8261026a565b9150819050919050565b600060208201905081810360008301526102b28161022a565b9050919050565b600081905092915050565b600082825260208201905092915050565b60006102e08261032b565b91506102eb8361032b565b9250827fffffffffffffffffffffffffffffffffffffffffffffffffffffffffffffffff038211156103205761031f610335565b5b828201905092915050565b6000819050919050565b7f4e487b7100000000000000000000000000000000000000000000000000000000600052601160045260246000fdfea2646970667358221220159fc8e2268b58edce006b035a276746e34d91291a45fc3439cbf61b6fe2ab0764736f6c63430008000033",
  "devdoc": {
    "kind": "dev",
    "methods": {},
    "version": 1
  },
  "userdoc": {
    "kind": "user",
    "methods": {},
    "version": 1
  },
  "storageLayout": {
    "storage": [
      {
        "astId": 314,
        "contract": "contracts/tansaction.sol:tansaction",
        "label": "amt",
        "offset": 0,
        "slot": "0",
        "type": "t_uint256"
      },
      {
        "astId": 316,
        "contract": "contracts/tansaction.sol:tansaction",
        "label": "inventor",
        "offset": 0,
        "slot": "1",
        "type": "t_address_payable"
      },
      {
        "astId": 320,
        "contract": "contracts/tansaction.sol:tansaction",
        "label": "s_funderToAmount",
        "offset": 0,
        "slot": "2",
        "type": "t_mapping(t_address,t_uint256)"
      },
      {
        "astId": 323,
        "contract": "contracts/tansaction.sol:tansaction",
        "label": "balance",
        "offset": 0,
        "slot": "3",
        "type": "t_uint256"
      },
      {
        "astId": 325,
        "contract": "contracts/tansaction.sol:tansaction",
        "label": "proposedAmount",
        "offset": 0,
        "slot": "4",
        "type": "t_uint256"
      },
      {
        "astId": 328,
        "contract": "contracts/tansaction.sol:tansaction",
        "label": "priceFeed",
        "offset": 0,
        "slot": "5",
        "type": "t_contract(AggregatorV3Interface)102"
      }
    ],
    "types": {
      "t_address": {
        "encoding": "inplace",
        "label": "address",
        "numberOfBytes": "20"
      },
      "t_address_payable": {
        "encoding": "inplace",
        "label": "address payable",
        "numberOfBytes": "20"
      },
      "t_contract(AggregatorV3Interface)102": {
        "encoding": "inplace",
        "label": "contract AggregatorV3Interface",
        "numberOfBytes": "20"
      },
      "t_mapping(t_address,t_uint256)": {
        "encoding": "mapping",
        "key": "t_address",
        "label": "mapping(address => uint256)",
        "numberOfBytes": "32",
        "value": "t_uint256"
      },
      "t_uint256": {
        "encoding": "inplace",
        "label": "uint256",
        "numberOfBytes": "32"
      }
    }
  }
}